:020000040800F2
:1000000038210020C10100087B3B0008D1300008E6
:10001000793B000825030008C55A000800000000CD
:100020000000000000000000000000005B3D000830
:10003000D905000800000000313C0008053E00081A
:10004000DB010008DB010008DB010008DB01000820
:10005000DB010008DB010008DB010008DB0500080C
:10006000DB010008DB010008DB010008DB01000800
:10007000DB010008DB010008DB010008DB010008F0
:10008000DB010008DB010008DB0100083503000884
:1000900029030008DB010008DB010008DB01000880
:1000A000DB010008DB010008DB010008DB010008C0
:1000B000DB010008DB010008DB010008DB010008B0
:1000C000DB010008DB010008DB010008DB010008A0
:1000D000DB010008F1450008FD450008094600085D
:1000E000DB010008DB010008DB010008DB01000880
:1000F000DB010008DB010008DB010008DB01000870
:10010000DB010008DB010008DB010008DB0100085F
:10011000DB010008DB010008093F0008DB010008E3
:10012000DB010008DB01000829050008DB010008ED
:10013000DB010008DB010008DB0100084D030008BB
:1001400041030008DB010008DB0100089D3B0008BB
:10015000DB010008DB010008DB0100083146000874
:10016000DB010008DB010008DB010008DB010008FF
:10017000DB010008DB010008DB01000800000000D3
:10018000DB010008DB010008DB010008DB010008DF
:10019000DB010008DB010008DB010008DB010008CF
:1001A0000000000000000000DB010008DFF80CD0B8
:1001B00000F05CF800480047AD5F000838210020DF
:1001C0000648804706480047FEE7FEE7FEE7FEE7F1
:1001D000FEE7FEE7FEE7FEE7FEE7FEE7B53E0008C6
:1001E000AD01000840EA01039B0703D009E008C9FC
:1001F000121F08C0042AFAD203E011F8013B00F8EC
:10020000013B521EF9D270472DE9F05F05460020F0
:1002100092469B4688460646814640241BE0284677
:1002200041464746224600F042F853465A46C01A15
:10023000914110D311461846224600F029F82D1A94
:1002400067EB01084F4622460120002100F020F80C
:1002500017EB00094E41201EA4F10104DFDC4846E3
:1002600031462A464346BDE8F09F0000064C074D44
:1002700006E0E06840F0010394E807009847103476
:10028000AC42F6D3FFF796FF2C6100084C610008E2
:10029000202A04DB203A00FA02F100207047914046
:1002A000C2F1200320FA03F3194390407047202A3B
:1002B00004DB203A21FA02F00021704721FA02F310
:1002C000D040C2F12002914008431946704770B5F2
:1002D0008C1810F8015B15F0070301D110F8013BF1
:1002E0002A1106D110F8012B03E010F8016B01F878
:1002F000016B5B1EF9D12B0705D40023521E0DD4D0
:1003000001F8013BFAE710F8013BCB1A921C03E01D
:1003100013F8015B01F8015B521EF9D5A142D8D355
:10032000002070BDFEE70000014800F0CDB90000DC
:100330006C080020014800F0C7B900006C080020DC
:10034000014800F0C1B90000AC080020014800F0ED
:10035000BBB90000AC08002010B54FF4D872036898
:1003600002EB01129B5813F00404436B9C60046879
:10037000436BA45856D0E4085C6003689A58436BFA
:1003800002F00202DA604FF4DA72036802EB011243
:100390009B58446B03F00F032361436B196203689E
:1003A0009A58436BC2F30722DA614FF4DC72036898
:1003B00002EB01129B58446B237503689B58446BF6
:1003C0001B0A637503689B58446B1B0CA375036879
:1003D0009A58436B120EDA754FF4DE72036802EB23
:1003E00001129B58446B237603689B58446B1B0A8D
:1003F000637603689B58446B1B0CA37603689A587A
:10040000436B120EDA762022002901680DD00A61B2
:1004100001684A6922F010024A6190F838102229D6
:1004200009D021E0640D1C60A7E7CA6001684A6931
:1004300022F00202F0E701684A6922F480724A6100
:1004400001684A6922F400724A6101684A6922F42B
:1004500080624A6101684A6922F400624A61016867
:100460004A6922F400424A6190F83810322907D0D4
:100470005FF0010180F8381000F03EFB002010BD55
:100480001221F7E710B501684A6922F001024A61BA
:1004900090F83810122918D101684A6922F4807244
:1004A0004A6101684A6922F400724A6101684A6936
:1004B00022F480624A6101684A6922F400624A615A
:1004C00001684A6922F400424A6190F838103229E2
:1004D00006D0012180F8381000F01CFC002010BD6F
:1004E0002221F7E7002070470020704710B5002256
:1004F0000549064804F072F903490448091F04F04D
:1005000067F9002010BD0000780100206C09002070
:1005100010B50146034804F05BF9024804F03CF9C9
:10052000002010BD6C090020014800F007BC00004D
:100530007C03002001681823CAB2103AB2FBF3F220
:10054000054B6FF30901032A9B5CC36500D9091DA4
:1005500081650846704700001061000810B501462B
:1005600000208B698A6A4FF0C07453B1B3F5005F05
:1005700015D072B1012A0CD0022A0AD0032A09D15F
:1005800004E01AB1012A06D0022A03D1C96AC901BE
:1005900000D5012010BDC96AA142FAD010BD002AC1
:1005A000F7D0012AF2D0022AF3D0032AF3D010BDEB
:1005B00030B50468256825F48025256004686360EB
:1005C0008368402B036803D099600068C26030BD27
:1005D0009A600068C16030BD7047022000F024BD01
:1005E000F0B50A7D01209040344A136843F00103BE
:1005F0001360136823F47C53136013684C6A43EA56
:10060000042313602D4B1C331C6884431C602B4D4A
:100610002B4CCE690C35A6B92E6886432E608F8987
:100620004E6867F31F464F6904EBC707C7F840667B
:100630000F890E6867F31F464F6904EBC707C7F8B9
:100640004466CE69012E14D12E6806432E600E88B2
:100650004D6866F31F454E6904EBC606C6F8405662
:100660000E89CD6866F31F454E6904EBC604C4F8D5
:100670004456124C8D69241D002D256806D0054373
:1006800025600E4C0D69143415B104E08543F7E77D
:100690002568854325600D69012D02D12568054334
:1006A0002560096A012902D119680143196010689F
:1006B00020F0010010600020F0BD00000066004046
:1006C000006000407047000010B5044600684169B2
:1006D000C943C90714D182685849914368D00021A1
:1006E0008368574A9A4365D00022836855489843E7
:1006F00062D000201143014302D02046FFF7C2FE22
:100700002068C168406911F0030FC0F3400004D0B5
:1007100018B100212046FFF71FFE216808694969CA
:1007200010F0030FC1F3001104D019B101212046CC
:10073000FFF712FE20688169426911F0010FC2F3D0
:1007400000234269C2F3C03205D023B11AB1E16B74
:1007500041F00101E1638169C1F3400341694269EC
:10076000C1F34021C2F3C0322BB121B11AB1E16B08
:1007700041F00201E16381694269C1F38001C2F382
:1007800080234269C2F3C03229B123B11AB1E16BAF
:1007900041F00401E163816911F0700F0ED0002176
:1007A00042694369C2F3C022C3F3C03341B127E0B9
:1007B000012195E7012298E701209BE70121EFE75E
:1007C000F2B1EBB1816901F07001402929D006DC5A
:1007D000102909D020290BD030290DD11DE0502936
:1007E00023D0602908D124E0E16B41F0080102E048
:1007F000E16B41F01001E163816921F070018161D9
:10080000E06B002808D0216804204860012084F8AB
:1008100038002046FFF756FF10BDE16B41F0200184
:10082000E9E7E16B41F04001E5E7E16B41F0800170
:10083000E1E7E16B41F48071DDE7000003000004B3
:1008400000030008000003102DE9F041040004D06B
:1008500094F83800002518B107E00120BDE8F081C8
:1008600084F83950204600F093F8022084F83800CC
:100870002068016821F0020101602068016841F0F0
:100880000101016000F0CCFC0746032605E000BF33
:1008900000F0C6FCC01B0A2863D820684068C00767
:1008A000F6D020684168C90768D0A16901290168AC
:1008B0003FD021F080010160E069012820680168D3
:1008C0003AD021F040010160206A012820680168C7
:1008D00035D021F020010160606A0128206801689C
:1008E00030D021F010010160A06A01282068016861
:1008F0002BD021F008010160E06A0128206801681E
:1009000026D021F004010160D4E902010843D4E9B2
:100910000412114308436168491E08432168C861F5
:100920002068016821F00101016000F079FC0746B0
:100930001CE041F08001BEE741F04001C3E741F017
:100940002001C8E741F01001CDE741F00801D2E7EE
:1009500041F00401D7E700BF00F062FCC01B0A2889
:1009600004D904F8386F0320657077E72068406881
:10097000C007F1D120684068C00703D0042084F884
:1009800038006AE7E563012084F83800002065E755
:10099000F0B5324B0768DFF8C0C0186803220224A4
:1009A00009252F490026401C87B0674521D11860D2
:1009B000012807D1086840F000700860086800F05E
:1009C000007005908DE85400CDE90325694625485F
:1009D00000F036FB01221146132000F0DBFC13204F
:1009E00000F0CDFC01221146142000F0D3FC1420AD
:1009F0002EE0DFF874C067452CD10F6847F08067A0
:100A00000F600F68012807F080670597186007D10D
:100A1000086840F000700860086800F000700590F9
:100A20004FF440508DE85100CDE9032569460F4849
:100A300000F006FB012211463F2000F0ABFC3F20F6
:100A400000F09DFC01221146402000F0A3FC402054
:100A500000F095FC07B0F0BD00640040600100208C
:100A600040380240000C0240006800400004024090
:100A700010B590F83820012A01D0122A39D190F807
:100A80003920012A35D0012280F8392090F8382009
:100A9000122A29D05FF0220280F838200022C26397
:100AA00003685C6944F480745C6103685C6944F4C5
:100AB00000745C6103685C6944F480645C61036891
:100AC0005C6944F400645C6103685C6944F400445C
:100AD0005C6180F8392000680029416906D041F046
:100AE00010014161002010BD3222D5E741F0020122
:100AF000F7E7022010BD000010B5044600F090FB9F
:100B00000246606B01680FA004F0DEFF606B0068B6
:100B1000A0F50071013905D0012903D0022901D0C7
:100B2000032905D1C1B213480170204605F0A2F98E
:100B300000211148FFF79CFFBDE8104000210F483D
:100B4000FFF796BF43616E20646174612052656354
:100B5000696576656420776974682049443A203075
:100B60007825782061742074696D652025640D0AEC
:100B700000000000200100206C080020AC080020CC
:100B80002DE9F05F0E46016804468868400105D4EF
:100B90008868000102D48868C00067D594F83900DD
:100BA00001280ED0012784F8397094F838002228E3
:100BB0000AD0122084F838008868400106D5002544
:100BC0000AE00220BDE8F09F3220F3E788680001C8
:100BD00001D5012500E002254FF4C07000EB05109F
:100BE0000A5802F001020A50216B8A68EAB3D4F86D
:100BF00000C05CF800301343CA68496842EAC1018A
:100C00000B434CF80030216B0A7C02F00F020A61A2
:100C10004FF4C271226801EB0511535823F00F0302
:100C2000535022685358D4F830C0DCF810C043EA5F
:100C30000C035350216B4FF4C47303EB05130A7D6F
:100C4000D1F8151042EA01212268D150216B4FF4EE
:100C5000C67303EB05130A7ED1F8191042EA01218D
:100C60002268D15021680A5801E00DE046E042F0C8
:100C700001020A5000F0D4FA81464FF00008DFF874
:100C800088A0DFF888B019E022681358D1F80CC0AA
:100C9000098843EA0C0343EA41511150B3E7701C41
:100CA0000CD02EB100F0BCFAA0EB0900B04205D97F
:100CB000032084F8380084F8398083E795B12068F0
:100CC000012D816813D0124888430028E7D194F899
:100CD000380032280ED084F8387000BF84F839808C
:100CE00000206FE7206881682AEA0100EDE72BEA1F
:100CF0000100EAE7222084F83800EFE7042084F8B6
:100D0000380001205EE70000030000040003000833
:100D100000000310704790F83510022903D080219D
:100D2000416501207047052180F835100068016891
:100D300021F0010101600020704700002DE9F84317
:100D4000044667A004F0C0FE4FF00008CDF8008014
:100D500067484FF41651A56D0068B0FBF1F72E6897
:100D600094F85C10082000FA01F131420FD021689C
:100D70000A6852070BD50A6822F004020A6094F848
:100D80005C108840A860606D40F00100606594F8D8
:100D90005C1058488840304208D0216849690906EB
:100DA00004D5A860606D40F002006065514894F879
:100DB0005C10C01C8840304208D02168096889074F
:100DC00004D5A860606D40F00400606594F85C1084
:100DD00010208840304218D021680968090714D5CE
:100DE000A86020680168490304D50068000308D59D
:100DF000A16C07E00168C90503D4016821F008016E
:100E00000160216C09B12046884794F85C102020CD
:100E1000884030424FF0010631D021680968C90688
:100E20002DD5A86094F8350005282068016806D003
:100E3000490347D5006800031DD4616C1CE021F014
:100E4000160101602068416921F080014161206C38
:100E500008B9A06C20B12068016821F00801016088
:100E600094F85C103F208840A86084F8348084F8AF
:100E70003560216D1FE0E16B09B120468847606D48
:100E800000282BD0606DC00714D0052084F83500F1
:100E90002068016821F0010101600098401C009069
:100EA000B84203D820680068C007F6D184F83480BF
:100EB00084F83560E16C002910D001B02046BDE80F
:100EC000F04308470168C905D5D4016821F0100135
:100ED000016084F8348084F83560CCE7BDE8F8839D
:100EE000444D414952512063616C6C65640A0000B5
:100EF0001C010020010080002DE9F041044600F0B3
:100F00008FF906465CB1002584F83450022084F83D
:100F100035002068016821F0010101600DE0012029
:100F2000BDE8F08100F07CF9801B052805D9202060
:100F30006065032084F83500F2E720680068C00788
:100F4000F0D1226811681F480140D4E90103184319
:100F5000D4E903363343184363691843A36918433C
:100F6000E3691843236A18430843616A042903D1DB
:100F7000D4E90B1319430843106020684069666A7E
:100F800020F0070130460E43012704280AD1A06A49
:100F900006432046FFF7E2FA20B14020606584F85E
:100FA0003570BCE7206846612046FFF7C3FA94F825
:100FB0005C203F2191408160656584F83570002098
:100FC000AEE700003F8010F070B5044690F83400A2
:100FD000002501280CD0012084F8340094F83560F5
:100FE0000020012E06D084F834000225284670BD6A
:100FF000022070BD022684F8356060652046FFF748
:10100000D7FA2068016841F001010160EEE731B5CF
:1010100000F006F9044600F003F90099001B88422D
:10102000F9D338BD70470000044910B50A68024280
:1010300002D00860FFF7F6FF10BD0000143C01402D
:101040002DE9F84FDFF890B100224FF001084FF082
:10105000030A4FF00F090BF1040E00BF0B6808FAEA
:1010600002F42340A3426ED14D68022D01D0122D0F
:101070000ED1D50800EB850CDCF820505607F70E92
:1010800009FA07F6B5430E69BE402E43CCF820603E
:10109000066855000F790AFA05FC07F0030726EAEF
:1010A0000C06AF40374307604E68012E05D0022E74
:1010B00003D0112E01D0122E0ED18768CE6827EAF8
:1010C0000C07AE403E4386604668A6430C79C4F3E5
:1010D0000014944034434460C4688E6824EA0C04CD
:1010E000AE402643C6604C68E4006FD53B4C256893
:1010F00045F480452560246822F0030504F480440B
:101100000094374C2E19D6F8084895072F0F09FA86
:1011100007F5AC43334DA84201D100252EE0324DF6
:10112000A84201D1012529E0304DA84201D1022574
:1011300024E02F4DA84201D103251FE02D4DA842E8
:1011400002D104251AE041E02B4DA84201D105252A
:1011500014E02A4DA84201D106250FE0284DA842EF
:1011600001D107250AE0274DA84201D1082505E055
:10117000254DA84201D1092500E00A25BD4025439F
:10118000C6F80858DBF800405D464E689C43F603FD
:1011900000D51C432C60DEF8004075464E689C4329
:1011A000B60300D51C432C600B4D08352C684E68E7
:1011B0009C43F60200D51C432C60074D0C352C686F
:1011C0004E689C43B60200D51C432C60521C102A6A
:1011D000FFF444AFBDE8F88F003C014044380240C2
:1011E00000300140000002400004024000080240BC
:1011F000000C02400010024000140240001802409F
:10120000001C0240002002400024024042694A4083
:10121000426170470AB1816170470904FBE7000031
:101220000148006870470000000000200248016883
:10123000491C016070470000000000200B4810B5F9
:10124000016841F400710160016841F4806101604E
:10125000016841F480710160032000F0BBF80020B8
:1012600000F006F800F018F8002010BD003C024025
:1012700010B5044607484FF47A710068B0FBF1F0EE
:1012800001F081F900222146501E00F083F8002071
:1012900010BD00001C01002010B5052000F09AF8D8
:1012A000002211466FF00B0000F074F80022114686
:1012B0006FF00A0000F06EF8002211466FF009008E
:1012C00000F068F800221146501F00F063F8002279
:1012D0001146101F00F05EF800221146901E00F02B
:1012E00059F80022BDE810401146501E00F052B8D7
:1012F0002DE9F04116460F46040004D094F8390059
:10130000002518B107E00120BDE8F08184F83850CD
:10131000204601F0F5FC242084F839002068C168DB
:1013200021F40051C160204602F0A8FF2068016945
:1013300021F4904101612068416921F02A01416155
:101340002068016921F00F010161206801693943BA
:1013500001612068C16821F40061C1602068C16832
:101360003143C1602068C16841F40051C160E56348
:10137000202084F8390084F83A000020C4E700F007
:101380001F02012191404009800000F1E020C0F8D7
:1013900000117047F0B40E4B1B680C46C3F30223D8
:1013A000C3F10705042D00D90425191D072901D211
:1013B000002300E0DB1E012606FA05F1491E21404C
:1013C00099409E40761E16403143F0BC02F0D6BBD9
:1013D0000CED00E0064900F0070208684FF6FF0335
:1013E000184040EA0220034A10430860704700009A
:1013F0000CED00E00000FA05006841620020704733
:10140000F0B500680023446A31B1856A4FF48276F2
:1014100004EB15444D1E0AE044EA024181620FE0EC
:1014200006EB8307C7595B1C04EB1744DBB2AB42E6
:10143000F6D34FF4807303EB810144EA0242425039
:101440000020F0BDD0F8B40303F018BCC1EBC1021A
:1014500000EB8202D0F8B403526C03F085BBC1EB01
:10146000C10200EB8202D0F8B403D2F8E82103F005
:10147000D0BBD0F8B40303F003BC10B504460A4651
:101480000B0601F07F00C0EBC00104EB810101D528
:10149000383101E001F5EE710870D009487094F818
:1014A0008003012809D0012084F88003206803F01C
:1014B00025FF002084F8800310BD022010BD70B508
:1014C0000A460446090602F07F0005D5C0EBC001BC
:1014D00004EB8101383105E0C2EBC20104EB81016C
:1014E00001F5EE7100258D700870D009487094F8F0
:1014F0008003012809D0012084F88003206804F0CB
:10150000B4F884F88053002070BD022070BD01F053
:101510007F01C1EBC10100EB8100B0F8F40180B2A2
:10152000704770B504460D460E0601F07F00C0EB13
:10153000C00104EB810101D5383101E001F5EE7104
:10154000ED0908704D708A60CB7000D0C88000250E
:10155000022B00D10D7194F88003012809D00120DD
:1015600084F88003206803F021FE284684F8805325
:1015700070BD022070BD000070B504460E4601F03B
:101580007F00C0EBC00104EB81010025C1F8E82118
:10159000C1E97C3581F8DD5181F8DC01206901F574
:1015A000EE71012800D10A6194F8800301280DD062
:1015B000012084F880037006227C206808D004F0A3
:1015C000B5F800BF84F88053002070BD022070BDC4
:1015D00003F08CFFF6E770B50D460446090605F0EA
:1015E0007F0005D5C0EBC00104EB8101383105E077
:1015F000C5EBC50104EB810101F5EE7101228A7092
:101600000870E809487094F88003012807D084F82E
:101610008023206804F05BF8680602D007E002200F
:1016200070BD217C04F56172206803F0FFFF00208B
:1016300084F8800370BD70B504460E4601F07F004B
:10164000C0EBC00104EB810100254A64C1E91335F8
:10165000012381F8393001F8380F2069012800D1C1
:101660000A6194F8800301280BD084F88033700657
:10167000227C206807D004F059F884F880530020B9
:1016800070BD022070BD03F031FFF6E72DE9F84F81
:10169000044600680026054604F09CF9002875D130
:1016A000206804F0C0F9002870D0206804F0BBF96D
:1016B000800704D52068416901F00201416120687A
:1016C00004F0B1F9010304F561704FF0010B4FF024
:1016D000000A00904DD5206804F087F9074646E0DF
:1016E000F80742D0F1B2206804F095F98046C007AF
:1016F00028D005EB4612C2F808BB2069012811D199
:10170000C6EBC60004EB8001D2F8102BD1F8E4013F
:10171000C2F31202821AC1F8F421D1F8E821104470
:10172000C1F8E801F1B22046FFF799FE20690128CF
:1017300008D13EB9D4F8F00120B920680121009AFF
:1017400003F074FF5FEA087007D5204600F0E8FA5E
:1017500005EB46110820C1F8080B5FEAC86004D504
:1017600005EB46111020C1F8080B7F08761C002FEE
:10177000B6D1206804F057F940034FF040095ED518
:10178000206804F02BF90746002656E0D2E1F8075E
:1017900051D0F1B2206804F02FF98046C00724D060
:1017A000D5F834280BFA06F08243C5F8342805EB47
:1017B0004610C0F808B92069012807D1C6EBC60059
:1017C00004EB8000D0E9101211444164F1B22046CC
:1017D000FFF73CFE2069012807D136B9E06C20B93B
:1017E00020680121009A03F021FF5FEA087004D508
:1017F00005EB46110820C1F808095FEAC86004D566
:1018000005EB46111020C1F808095FEA486003D5CE
:1018100005EB4611C1F808995FEA887004D505EB1D
:1018200046110220C1F808095FEA086003D5314675
:10183000204602F0B9F97F08761C002FA7D1206856
:1018400004F0F1F800280DDAD5F8040820F00100C2
:10185000C5F80408204600F049FA2168486900F0FC
:1018600000404861206804F0DEF800050BD5D5F88B
:101870000808C00702D0204600F06EFA20684169CF
:1018800001F400614161206804F0CDF8C0044CD53A
:10189000D5F8040820F00100C5F8040800212068EC
:1018A00004F068F80020FF2107E000BF05EB4012BC
:1018B000C2F80819C2F8081B401C62688242F5D8B9
:1018C0004FF0FF30C5F81808D5F81C0840F001109B
:1018D000C5F81C08206B60B1D5F8840840F00B00F7
:1018E000C5F88408D5F8440840F00B00C5F8440852
:1018F0000BE0D5F8140840F00B00C5F81408D5F833
:10190000100840F00B00C5F81008D5F8000820F4C6
:10191000FE60C5F80008217C2068009A03F086FE6E
:101920002168486900F480504861206804F07BF821
:1019300080047DD5206803F079FC2068C16821F41B
:101940007051C160206804F027F878B10320C4F812
:101950001490E06000F0D6FA7749784A0144914249
:101960000AD22068C16841F4705158E04FF4007009
:10197000C4F80CA0606136E07149724A014491429A
:1019800004D22068C16841F4605148E06E496F4A52
:101990000144914204D22068C16841F450513EE0B4
:1019A0006B496C4A0144914204D22068C16841F4F9
:1019B000405134E06849694A0144914204D22068A8
:1019C000C16841F430512AE06549664A01449142B8
:1019D00004D22068C16841F4205120E062494218D5
:1019E00062498A4204D22068C16841F4105116E06D
:1019F0005F49604A0144914204D22068C16841F4C1
:101A000000510CE05C4908445C4988422068C16888
:101A100003D241F4E05102E00AE041F4C051C16058
:101A2000204600F053F92068416901F400514161FA
:101A3000206803F0F8FFC00636D52168886920F0D9
:101A400010008861D5F8208008F00F00C0EBC000BE
:101A500004EB8007C8F3434007F5EE77022802D075
:101A6000062812D01BE047F6F07018EA000F16D0D7
:101A7000C8F30A1290462846F96803F0D8FFF868C0
:101A80004044F860B869404408E0082228460099BC
:101A900003F0CDFFB969C8F30A100844B8612068A3
:101AA000816941F010018161206803F0BCFF0007EB
:101AB00007D5204600F01EF92068416901F00801B1
:101AC0004161206803F0AFFFC00208D5F1B22046A3
:101AD00000F056F82068416901F4801141612068E6
:101AE00003F0A1FF800208D5F1B2204600F04CF8C7
:101AF0002068416901F400114161206803F093FFFF
:101B0000400007D52046FFF79DFC2068416901F0A1
:101B100080414161206803F086FF40070AD52068B4
:101B20004568680702D52046FFF7A3FC2068416896
:101B300029434160BDE8F88F405327FF00350C0072
:101B4000401E1BFF40420F0000DC0BFF804F1200C5
:101B5000808CF9FE20D6130060B6E5FE60E3160027
:101B600000D3CEFE40771B00C05BB3FEC0912100C6
:101B700000CA91FE20753800E05459FEE09C4100F7
:101B8000D0F8B40303F0DAB8D0F8B40303F0D8B84F
:101B9000F0B58BB004004FF0000556D0032084F858
:101BA0008103204600F054F8206803F099FC04F10A
:101BB000100128220F466846FEF714FB94E80F0038
:101BC00003F04EFB0021206803F041FF01260020B6
:101BD000C5EBC50104EB810181F8396001F8385F7C
:101BE000CD80C8708860C8606D1C48610F2DEFD330
:101BF00000214FF4827300BFC1EBC10204EB8202EB
:101C000003EB810582F8DD0182F8DC11D18782F8CF
:101C1000DF01C2F8E401C2F8E801C2F8F00122686D
:101C20005051491C0F29E7D3282239466846FEF750
:101C3000D9FA94E80F0003F0B1FB84F881632068BF
:101C400003F09FFB00200BB0F0BD0120FBE700007C
:101C5000F0B5006887B0B0F1A04F31D14FF480509B
:101C60000224CDE9000402AA012003250A2682E805
:101C70006100144F69463846FFF7E2F9A002CDE94A
:101C8000000402AA002082E8610069463846FFF796
:101C9000D7F90D48016841F0800101600A48103011
:101CA000016841F4804101600068022200F4804034
:101CB000059001214320FFF76DFB4320FFF75FFBF9
:101CC00007B0F0BD000002403438024010B50446B1
:101CD000C068012100B90021D4F8B40303F086F8EC
:101CE000D4F8B403BDE8104003F04FB8D0F8B40303
:101CF00003F06AB8D0F8B40303F06CB810B504462A
:101D000090F88003012809D0012084F8800320681E
:101D100003F0B3FE002084F8800310BD022010BD44
:101D2000D0F8B42300F56171104603F072B810B515
:101D3000044690F8800301280CD0012084F8800329
:101D4000206803F012FB206803F0FEFD002084F8F9
:101D5000800310BD022010BD10B50446D0F8B403B6
:101D600003F0A4F82068D0F8001E41F00101C0F88B
:101D7000001E206A002804D00248016841F00601D4
:101D8000016010BD10ED00E02DE9F047DFF864912F
:101D900005460F46D9F8000000F00F01F8B2804662
:101DA000B94208D2014689F80010D9F8000000F0C5
:101DB0000F00B84274D128784F4C800705D52068B1
:101DC000A96820F0F000084320602878C00759D0A7
:101DD00049496868083901281AD002281BD003280D
:101DE00019D00968890700295ADA216821F003010E
:101DF00001432160FFF714FA6968064641F2883012
:101E0000012911D002291DD00329824627D035E0AF
:101E100009688903E7E709688901E4E7FFF700FA41
:101E2000811B514501D926E082462068C0F381001C
:101E30000128F3D126E000BFFFF7F2F9811B5145DD
:101E400001D918E082462068C0F381000228F3D14E
:101E500018E000BFFFF7E4F9811B51450BD820685B
:101E6000C0F381000328F5D10CE000BFFFF7D8F9DB
:101E7000811B514502D90320BDE8F087206810F08E
:101E80000C0FF3D1D9F80010484601F00F01B94208
:101E900008D980F80080006800F00F00B84201D037
:101EA0000120E9E72878400705D52068E96820F493
:101EB000E050084320602878000706D5206829698B
:101EC00020F4604040EAC100206000F051F8216831
:101ED000F02292FAA2F201F0F001B2FA82F2D140BD
:101EE000064A515CC840064908600020FFF7C0F967
:101EF0000020C1E7003C02400838024000610008B1
:101F00001C01002001480068704700001C010020EF
:101F100008480949006809684FF4E05292FAA2F2B1
:101F200001F4E051B2FA82F2D140044A515CC84057
:101F3000704700001C0100200838024000610008C2
:101F400008480949006809684FF4604292FAA2F211
:101F500001F46041B2FA82F2D140044A515CC840B7
:101F6000704700001C010020083802400061000892
:101F700030B51948006810F00C01184812D0184C00
:101F800004290ED008290DD11349091F0A6802F04F
:101F90003F030A68550247F6C07204D5B4FBF3F05C
:101FA00003E0204630BDB0FBF3F00B680968134036
:101FB00092FAA2F2B2FA82F2D34058434FF440327E
:101FC00092FAA2F201F44031B2FA82F2D140491CF5
:101FD0004900B0FBF1F030BD083802400024F400A5
:101FE000001BB7002DE9F84F0446DFF8CC820078DB
:101FF000A8F1040BC007ABF1040537D0D8F80010E6
:102000004046C1F38101012908D00068C0F3810076
:1020100002280AD1DBF80000400206D528688003B8
:1020200024D56068002878D020E0A3492079891F52
:102030000870606868B1FFF7F3F8064605E000BF76
:10204000FFF7EEF8801B642868D828688003F7D56E
:102050000CE0FFF7E5F8064605E000BFFFF7E0F803
:10206000801B6428F0D828688003F7D42078934E2A
:1020700080074FF0010A4FF0000742D5D8F8001052
:10208000404611F00C0F08D00068C0F38100022810
:102090000AD1DBF80000400206D42868800714D576
:1020A000E068012839D110E0E068D8B1C6F800A096
:1020B000FFF7B6F8814605E0FFF7B2F8A0EB09009C
:1020C0000228C1D828688007F6D52868F82292FA35
:1020D000A2F22169B2FA82F220F0F800914008439E
:1020E00028600EE03760FFF79BF8814606E000BFEE
:1020F000FFF796F8A0EB090002280FD828688007A0
:10210000F6D42078000728D56D486169A1B1C0F8E0
:1021100000A0FFF785F8814608E0CAE079E000BF3B
:10212000FFF77EF8A0EB0900022872D862486C30F5
:1021300000688007F4D510E00760FFF771F881466A
:1021400006E000BFFFF76CF8A0EB0900022860D89A
:1021500059486C3000688007F4D42078400749D58E
:1021600055483830016841F080510160006800F046
:10217000805000905348016841F480710160FFF77E
:102180004FF8814606E000BFFFF74AF8A0EB0900D0
:1021900002283ED84B480068C005F5D5DFF81891F5
:1021A000207A09F1680989F80000A06888B1FFF772
:1021B00037F8009008E000BFFFF732F80099411AA5
:1021C00041F2883081426CD8D9F800008007F3D5FD
:1021D00010E0FFF725F8009008E000BFFFF720F8B7
:1021E0000099411A41F2883081425AD8D9F800004A
:1021F0008007F3D4A069E0B3D8F80010C1F38101DF
:10220000022956D00228376604D0FFF709F80446A1
:102210004AE046E0FFF704F8074604E0FFF700F85D
:10222000C01B02283DD828688001F7D4D4E90701F3
:10223000084347F6C07292FAA2F2616AB2FA82F2D9
:102240009140A26A4FF0FF3303EB52024FF4403348
:1022500093FAA3F3B3FA83F39A40114308434FF080
:10226000706292FAA2F2E16AB2FA82F291400843F5
:1022700000E01CE0CBF80000C6F860A0FEF7D0FF3D
:10228000044604E0FEF7CCFF001B022809D82868AA
:102290008001F7D50BE000BFFEF7C2FF001B02284C
:1022A00002D90320BDE8F88F28688001F4D400200B
:1022B000F8E70120F6E70000083802400000474236
:1022C000800E47420070004070B5040005D0002524
:1022D000A56294F8510010B106E0012070BD84F8A9
:1022E0005050204600F030F8022084F85100206859
:1022F000016821F040010160D4E901010843D4E9FB
:1023000003121143084361690843218B01F40071F2
:102310000843E1690843216A0843A16A0843216828
:102320000860A069042101EA1040616A084321683D
:1023300048602068C16921F40061C16165650120C0
:1023400084F85100002070BD00B500680E4987B0C8
:10235000884217D10D480021026842F480120260C1
:10236000006800F4801005904FF460700090022027
:10237000CDE901010320039005200490694604483B
:10238000FEF75EFE07B000BD005001404438024039
:10239000001402402DE9F84F044690F85000002642
:1023A0000A9F9A4693460D464FF0010801280ED029
:1023B000012084F85000FEF733FF814694F8510065
:1023C000616801280CD0B1F5827F07D102E00220BC
:1023D000BDE8F88FA16809B9042801D00226BDE044
:1023E00055B1BBF1000F07D0BAF1000F04D094F83B
:1023F0005100012802D004E00126AFE0052084F856
:10240000510000206065C4F838B0A4F83EA0A4F8DC
:102410003CA02563A4F836A0A4F834A0206460642E
:1024200020680168490603D4016841F04001016059
:10243000E068B0F5006F606804D0E8B3E08E012872
:102440003BD06AE010B1E08E01282ED1216835F82A
:10245000020BC860E08E401EE08626E0B8F1000F57
:102460000DD0E08E58B120688168890707D535F80E
:10247000021BC160E08E401EE0864FF00008E08F36
:1024800058B120688168C90707D0C0682BF8020BD3
:10249000E08F401EE0874FF00108781C05D0FEF762
:1024A000BFFEA0EB0900B84246D2E08E0028D5D18D
:1024B000E08F0028D2D136E0FFE7216815F8010B44
:1024C0000873E08E401EE08627E000BFB8F1000FE1
:1024D0000DD0E08E58B120688168890707D515F8BE
:1024E000011B0173E08E401EE0864FF00008E08F74
:1024F00058B120688168C90707D0C0680BF8010B84
:10250000E08F401EE0874FF00108781C05D0FEF7F1
:1025100087FEA0EB0900B8420ED2E08E0028D5D18C
:10252000E08F0028D2D13B46012202212046CDF87F
:10253000009001F0C7FB08B103260FE04A46394678
:10254000204601F0AFFB18B101262020606505E0B0
:10255000A06818B92068C16880680090012084F8DC
:102560005100002084F85000304631E74FF0E02160
:102570000428086903D020F004000861704740F087
:102580000400FAE7704710B5401EB0F1807F01D318
:10259000012010BD4FF0E02460610F21601701F0B1
:1025A000EDFA0020A06107202061002010BD10B5C9
:1025B000FFF7E8FF10BD7047704730B590F838203E
:1025C000012A19D0012200F8382F02234370D1E9E3
:1025D00000342343D1E902452C4323430C692343B0
:1025E0004C69896923430B4350F8381C4B64427093
:1025F00000210170084630BD022030BD30B590F892
:102600003820012A20D0012280F83820022380F8C7
:10261000393003685C6824F070045C6003685C68AF
:102620000D682C435C6003689C6824F080049C6007
:1026300003689C6849680C439C6080F8392000213D
:1026400080F83810084630BD022030BD10B50400B7
:1026500003D094F8390010B107E0012010BD00202C
:1026600084F83800204600F00DF8022084F8390084
:10267000211D206801F04EFC012084F83900002063
:1026800010BD000008B501682948B1F1804F0BD09A
:10269000284A914210D1016841F0020101600068AE
:1026A00000F00200009008BD016841F001010160E6
:1026B000006800F00100F5E71F4A914207D1016868
:1026C00041F004010160006800F00400EAE71B4AE1
:1026D000914207D1016841F008010160006800F0F3
:1026E0000800DFE7164A914211D1016841F010015C
:1026F00001600068012200F01000009000213620E7
:10270000FEF748FEBDE808403620FEF738BE0D4A09
:10271000914202D10648001DBDE70B4A9142C2D149
:10272000016841F040010160006800F04000B9E735
:10273000403802400004004000080040000C004007
:102740000010004000040140001800400168CA6801
:1027500042F00102CA600068016841F001010160B5
:102760000020704770B5044690F83800012817D053
:10277000012584F83850022084F8390020688268E6
:1027800022F0770222F47F4282600868502837D016
:102790000DDC202859D005DC88B3102841D151E048
:1027A000022070BD302853D040283AD13FE0602845
:1027B0002ED070280BD0B0F5805F03D0B0F5005F4D
:1027C0002FD110E02068816821F0070115E0CB6867
:1027D000D1E90121206801F008FC2168886840F0F7
:1027E000770088601DE0CB68D1E90121206801F005
:1027F000FCFB2068816841F48041816011E01EE0AB
:10280000CA684968206801F0B9FC5021206806E0D8
:10281000CA684968206801F0C2FC6021206801F0A4
:10282000EEFB84F83950002084F8380070BDCA6887
:102830004968206801F0A2FC40212068EFE70021F0
:102840002068ECE710212068E9E720212068E6E70E
:1028500030212068E3E7704770B5044600680169DD
:102860004FF00005C943890715D4C168C9438907DA
:1028700011D4E91E0161012020762068806980075B
:10288000204602D0FFF7E7FF04E000F00BF92046F6
:1028900000F08DF9257620680169C943490717D4EE
:1028A000C168C943490713D46FF0040101610220D4
:1028B00020762068806910F4407F204602D0FFF720
:1028C000CAFF04E000F0EEF8204600F070F925762B
:1028D00020680169C943090716D4C168C9430907BB
:1028E00012D46FF008010161042020762068C069CD
:1028F0008007204602D0FFF7AEFF04E000F0D2F8D8
:10290000204600F054F9257620680169C943C906BC
:1029100017D4C168C943C90613D46FF0100101610F
:10292000082020762068C06910F4407F204602D03D
:10293000FFF791FF04E000F0B5F8204600F037F90A
:10294000257620680169C943C90708D1C168C94310
:10295000C90704D1891E0161204600F045F92068AD
:102960000169C943090609D4C168C943090605D4E8
:102970006FF0800101612046FFF71DFE20680169AC
:10298000C943490609D4C168C943490605D46FF053
:1029900040010161204600F028F920680169C9431F
:1029A00089060BD4C168C943890607D46FF020019A
:1029B00001612046BDE87040FFF7FEBD70BD00001C
:1029C00070B5016800240225012086B0B1F1804F66
:1029D00009D02A4A914213D110200090CDE9015428
:1029E000694627482CE00F210091CDE90154CDE93B
:1029F00003402448694600BFFEF722FB06B070BDC5
:102A0000214A914207D14FF470400090CDE9015422
:102A100069461E4814E01E4B1E4A1F4E994212D1B1
:102A20000090CDE9015469461046CDE90345FEF713
:102A300007FB4FF4E0500090CDE901546946304661
:102A4000CDE90345D8E71548814209D1E42000903B
:102A5000CDE901540320CDE9034069461046CBE798
:102A60000F488142CAD14FF410700090CDE9015453
:102A70000920CDE9034069463046BDE70004004027
:102A8000000402400000024000080040000C024028
:102A9000000C004000200240001C024000040140E5
:102AA00000180040704770B5044690F838000D4695
:102AB00001280DD0012684F83860022084F83900FE
:102AC00042B1042A18D0082A2AD00C2A4DD139E064
:102AD000022070BD206801F09BFA2068816941F0F6
:102AE000080181612068816921F004018161206809
:102AF00081692A69114311E0206801F0B5FA206864
:102B0000816941F4006181612068816921F48061FB
:102B10008161206881692A6941EA0221816124E09A
:102B2000206801F0D3FA2068C16941F00801C16151
:102B30002068C16921F00401C1612068C1692A6966
:102B4000114311E0206801F0F1FA2068C16941F4F5
:102B50000061C1612068C16921F48061C1612068A0
:102B6000C1692A6941EA0221C16184F83960002003
:102B700084F8380070BD10B5040003D094F8390013
:102B800010B107E0012010BD002084F83800204675
:102B900000F00CF8022084F83900211D206801F0B3
:102BA000B9F9012084F83900002010BD7047704742
:102BB00010B504460068012201F00CFA08492068AB
:102BC000884202D00749884203D1416C41F4004158
:102BD00041642068016841F001010160002010BDDE
:102BE000000001400004014070477047704700003A
:102BF00070B5026804461068D168536910F00F0F71
:102C000050D003F0010501F4907635435DD0C20742
:102C100005D0CA0503D5E26B42F00102E263420728
:102C200005D5DA0703D0E26B42F00202E2638207C5
:102C300005D5DA0703D0E26B42F00402E263020733
:102C400005D5DA0703D0E26B42F00802E263E26BDB
:102C5000002A33D0800604D5880602D5204601F02C
:102C6000C6FA20684069E16BC0F38010090700D400
:102C700028B3204601F0ADFA2068416949061AD50B
:102C8000416921F040014161606BA0B11B490165C0
:102C9000606BFEF740F8002810D0606B016DBDE856
:102CA00070400847830610D58B060ED52046BDE838
:102CB000704001F09CBA2046FFF798FF70BD204697
:102CC000FFF794FF0020E06370BD030606D50B06F6
:102CD00004D52046BDE8704001F026BC4006F3D57F
:102CE0004806F1D5D168204621F04001D16020216D
:102CF00084F8391000F0EBF970BD0000C341000802
:102D0000F0B50646D0F800C04548002445490223E6
:102D10000325072787B084452FD1086840F01000AD
:102D200008600868694600F010000590C0208DE832
:102D3000B9003D48FEF784F93D4D3C4828604FF00E
:102D40000060C5E901044014C5E9034080106C61CE
:102D5000C5E906402C6228466C62FEF7CDF818B132
:102D6000B72134A002F0AFFE7563022200212520B6
:102D7000AE63FEF70FFB252019E02A4A314E121FE1
:102D80003148B44517D1116841F400311160116820
:102D900001F40031059160218DE8BA006946FEF723
:102DA0004FF9002201212620FEF7F4FA2620FEF733
:102DB000E6FA07B0F0BD254EB44515D1116841F4CF
:102DC00080211160116801F4802105914FF4407158
:102DD0008DE8BA006946FEF733F900220121272069
:102DE000FEF7D8FA2720E2E719488445E1D10868C0
:102DF00040F0200008600868694600F02000059057
:102E00004FF484408DE83900082004901148FEF703
:102E100017F9002201214720FEF7BCFA4720C6E738
:102E20000010014044380240000402404064024067
:102E30007C0300202E2E2F5372632F7573617274E2
:102E40002E63000000440040000C02400048004097
:102E500000140140001802402DE9F843044690F8A0
:102E60003A00994616460D4620284FD195B18EB1AD
:102E700094F83800012849D0012084F83800002750
:102E8000E763222084F83A00FEF7CAF9A685804657
:102E9000E68531E00120BDE8F883E08D401EE08545
:102EA000A0684346B0F5805F4FF000024FF020016C
:102EB0002046CDF8009004D001F067FB98B10320C4
:102EC000E9E701F062FB0028F9D1206900282068B9
:102ED000406803D0C1B225F8011B0DE0C0F3080122
:102EE00025F8021B08E0206900282068406801D00E
:102EF00000F07F0005F8010BE08D0028CDD12020E7
:102F000084F83A0084F838700020C4E70220C2E751
:102F100090F83A30202B1DD1D1B1CAB190F8383099
:102F2000012B17D081628285C2850021C1632222D4
:102F300080F83A2080F8381001684A6942F00102AE
:102F40004A610068C16841F49071C1600020704717
:102F5000012070470220704738B504461C4884425F
:102F600008D100680168406800900122194918489A
:102F7000FFF7CEFF184884420ED100680168406810
:102F800014490090322232391348FFF7C1FF11492A
:102F900012A0323902F098FD164DAC4216D14FF412
:102FA00080411548FEF732F92868016840680949F0
:102FB00000900A23322264392846FFF74DFFBDE80E
:102FC000384004490DA0643902F07EBD38BD0000D0
:102FD0003C03002020020020BC0200205553415237
:102FE0005432204D736720526563696576656420AD
:102FF00025730A00FC020020001402405553415280
:1030000054332052656369657665643A2025730AF6
:10301000000000002DE9F843044690F839001F46EF
:1030200016460D46202850D1A5B19EB194F838001F
:1030300001284AD0012084F838004FF00008C4F875
:103040003C80212084F83900FEF7EAF8A684814606
:10305000E68426E00120BDE8F883E08C401EE08491
:10306000A0684B46B0F5805F4FF000024FF0800142
:103070002046009703D001F088FAE8B90DE001F08E
:1030800084FAC8B928882168C0F30800486020691C
:1030900008B16D1C05E0AD1C03E0216815F8010BBB
:1030A0004860E08C0028D8D14B46002240212046C1
:1030B000009701F06AFA08B10320CCE7202084F8D9
:1030C000390084F838800020C5E70220C3E7704744
:1030D000FEE7000030B585B0002414220F49684691
:1030E000FDF780F86420FDF792FF752000F01AF8D4
:1030F0000B494FEA0D05087005EB4400417815F8BF
:10310000140000F037F80120FDF781FF641CE4B2E1
:103110000A2CF1D305B0002030BD00001861000872
:1031200021010020F8B5104E04460022402130460F
:10313000FEF770F844F080000C4C3725E21C20713B
:103140000123511C0A480095FFF724F9E21C0123D2
:10315000511C07480095FFF71DF901224021304618
:10316000FEF758F8E078F8BD001402402101002075
:1031700094070020F8B5114F0E4604460022402166
:103180003846FEF747F804F07F000D4C3725621CE7
:10319000A0700123511C0B480095FFF7FBF8A670A7
:1031A000621C0123511C07480095FFF7F3F8012228
:1031B00040213846FEF72EF80020F8BD00140240EA
:1031C0002101002094070020124810B51049016029
:1031D000032141604FF08041816000214FF40022C3
:1031E000C0E903124FF44012C0E90521C161016238
:1031F000416281620121C162FDF726FB002805D0F2
:10320000BDE81040502104A002F05DBC10BD0000DC
:10321000006400406C0800202E2E2F5372632F6331
:10322000616E2E6300000000124810B51049016065
:10323000032141604FF08041816000214FF4002262
:10324000C0E903124FF44012C0E90521C1610162D7
:10325000416281620121C162FDF7F6FA002805D0C2
:10326000BDE81040662104A002F02DBC10BD000096
:1032700000680040AC0800202E2E2F5372632F638D
:10328000616E2E6300000000094808B5016841F432
:10329000800101600068002200F480000090114667
:1032A0003A20FEF777F8BDE808403A20FEF767B805
:1032B000303802402DE9F047514886B000240168BB
:1032C00041F010010160016801F0100105910168F1
:1032D00041F040010160016801F040010591016881
:1032E00041F002010160016801F0020105910168ED
:1032F00041F001010160016801F0010105910168DF
:1033000041F008010160016801F0080105910168C0
:1033100041F480710160016801F4807105910168D8
:1033200041F004010160016801F0040105910168A8
:1033300041F080010160016801F0800105910168A0
:1033400041F0200101600068DFF8B8A000F0200023
:10335000059000228C215046FDF75CFFDFF8A88025
:103360004FF40056002231464046FDF753FFDFF888
:103370009C9044F24007002239464846FDF74AFF38
:103380000C200125CDE900050320CDE90240694666
:103390005046FDF755FE022000901D48CDE901047E
:1033A00069465046FDF74CFE0096CDE9015469464A
:1033B00040460394FDF744FE0097CDE90154694669
:1033C00048460394FDF73CFEA802CDE90004694697
:1033D00010480294FDF734FE80200090CDE901549E
:1033E000694650460394FDF72BFE02220021072078
:1033F000FDF7D0FF0720FDF7C2FF06B0BDE8F0875C
:103400003038024000100240001802400014024010
:1034100000001110000C0240114810B50F49016066
:103420004FF48271416000218160C1604FF40072ED
:103430000161C0E905123022C0E9072141628162C1
:103440000A21C162FEF740FF002805D0BDE8104008
:103450004F2104A002F037BB10BD00000050014016
:10346000940700202E2E2F5372632F7370692E63E2
:103470000000000010B527488CB025490160532199
:103480000024C0E9011440F6C311C0E90314FFF79A
:10349000DDF820B14FF4CE711FA002F014FB4FF401
:1034A0008050079007A91B48FFF75CF920B14FF443
:1034B000D17119A002F007FB1648FFF75CFB20B1A1
:1034C00040F2A71114A002F0FEFA602000904FF421
:1034D0007A70CDE90104002269460E480494FFF792
:1034E000E2FA20B14FF4D8710BA002F0ECFA0422FA
:1034F000694608480194FFF7D6FA20B14FF4DB7112
:1035000005A002F0E0FA0348FFF75AFA0CB010BD2C
:1035100000180040F80C00202E2E2F5372632F74D9
:10352000696D2E630000000010B531488EB04FF079
:1035300080410024C0E900148460C4600461FFF786
:1035400085F818B14F212BA002F0BDFA4FF480503E
:10355000079007A92648FFF705F918B1552125A0BE
:1035600002F0B1FA2248FFF706FB18B15A2121A058
:1035700002F0A9FA0B940BA91D480C94FFF73EF832
:1035800018B161211BA002F09EFA6020CDE9000471
:1035900002940022694616480494FFF784FA18B191
:1035A0006A2114A002F08FFA042269461048FFF73E
:1035B0007AFA18B16F210FA002F085FA0822694645
:1035C0000B48FFF770FA18B174210AA002F07BFAD9
:1035D0000C2269460648FFF766FA18B1792105A062
:1035E00002F071FA0248FFF7EBF90EB010BD0000CF
:1035F000900B00202E2E2F5372632F74696D2E6353
:103600000000000010B523488EB02149016053210D
:103610000024C0E90114C4600461FFF717F818B171
:103620008D211DA002F04FFA4FF48050079007A99A
:103630001848FFF797F818B1932117A002F043FA42
:103640001448FFF798FA18B1982113A002F03BFA3A
:103650000B940BA90F480C94FEF7D0FF18B19F21D3
:103660000DA002F030FA6020CDE90004029400229F
:10367000694608480494FFF716FA18B1A82106A075
:1036800002F021FA0348FFF79BF90EB010BD0000CD
:1036900000040040CC0B00202E2E2F5372632F7499
:1036A000696D2E630000000010B531488EB02F49BF
:1036B0000024C0E900148460C4600461FEF7C6FF02
:1036C00018B1BC212BA002F0FEF94FF480500790F6
:1036D00007A92748FFF746F818B1C22125A002F034
:1036E000F2F92348FFF747FA18B1C72121A002F0E9
:1036F000EAF90B940BA91E480C94FEF77FFF18B152
:10370000CE211CA002F0DFF96020CDE90004029474
:103710000022694616480494FFF7C5F918B1D7216D
:1037200014A002F0D0F9042269461148FFF7BBF952
:1037300018B1DC210FA002F0C6F9082269460C4836
:10374000FFF7B1F918B1E1210AA002F0BCF90C228F
:1037500069460748FFF7A7F918B1E62105A002F06E
:10376000B2F90348FFF72CF90EB010BD0008004075
:10377000080C00202E2E2F5372632F74696D2E6358
:103780000000000010B535488EB033490024C0E970
:1037900000148460C4600461FEF758FF18B1FA2178
:1037A0002FA002F090F94FF48050079007A92B4802
:1037B000FEF7D8FF20B14FF4807129A002F083F901
:1037C0002648FFF7D8F920B140F2051124A002F0F5
:1037D0007AF90B940BA921480C94FEF70FFF20B146
:1037E0004FF486711EA002F06EF96020CDE900044E
:1037F00002940022694619480494FFF754F920B155
:1038000040F2151116A002F05EF904226946134831
:10381000FFF749F920B14FF48D7111A002F053F96F
:10382000082269460D48FFF73EF920B140F21F110A
:103830000BA002F048F90C2269460848FFF733F95B
:1038400020B14FF4927106A002F03DF90348FFF752
:10385000B7F80EB010BD0000000C0040440C002072
:103860002E2E2F5372632F74696D2E63000000009B
:103870001CB511480F49002401605321C0E901140F
:103880004FF47A71C160FEF7E1FE20B140F23511CC
:103890000AA002F018F90094694607480194FEF75F
:1038A000ADFE002804D04FF49E7104A002F00BF985
:1038B0001CBD000000100040800C00202E2E2F5355
:1038C00072632F74696D2E630000000010B54148CB
:1038D00094B03F490160A7210024C0E90114C460ED
:1038E00004614461FEF7B2FE20B14FF4A8713AA022
:1038F00002F0E9F84FF480500E900EA93548FEF71B
:1039000031FF20B14FF4AB7133A002F0DCF8314845
:10391000FFF731F920B140F25B112FA002F0D3F88C
:10392000129412A92B481394FEF768FE20B14FF4AD
:10393000B17129A002F0C7F86020CDE9000402941B
:103940000394049405940022694622480694FFF7E4
:10395000AAF820B14FF4B7711FA002F0B4F8042206
:1039600069461C48FFF79FF820B140F273111AA076
:1039700002F0A9F8082269461648FFF794F820B12A
:103980004FF4BC7114A002F09EF80C226946114855
:10399000FFF789F820B140F27D110FA002F093F8F3
:1039A0000794089409944FF400500A94CDE90B4011
:1039B00007A908480D94FEF700FE20B140F28911D6
:1039C00005A002F080F80348FEF7FAFF14B010BD1E
:1039D00000040140BC0C00202E2E2F5372632F7464
:1039E000696D2E6300000000124810B51049016097
:1039F0001149416000214FF480628160C0E90312E7
:103A00000422C0E90521C16180F8391011030B4877
:103A1000FDF7FCFB002211460648FDF769FC002873
:103A200005D0BDE81040542105A002F04CB810BDEF
:103A3000001001407C020020A0860100001402401A
:103A40002E2E2F5372632F75736172742E630000D4
:103A50000E4810B50C4901604FF4E131416000217E
:103A600081600C22C160C0E9041281610A46C16113
:103A7000FDF73EFC002805D0BDE81040672104A0FA
:103A800002F021B810BD000000440040BC0200203C
:103A90002E2E2F5372632F75736172742E63000084
:103AA0000E4810B50C4901604FF4E131416000212E
:103AB00081600C22C160C0E9041281610A46C161C3
:103AC000FDF716FC002805D0BDE810407A2104A0BF
:103AD00001F0F9BF10BD000000480040FC020020CA
:103AE0002E2E2F5372632F75736172742E63000034
:103AF0000E4810B50C4901604FF4E13141600021DE
:103B000081600C22C160C0E9041281610A46C16172
:103B1000FDF7EEFB002805D0BDE810408D2104A084
:103B200001F0D1BF10BD0000001401403C03002093
:103B30002E2E2F5372632F75736172742E630000E3
:103B400010B500220849094800F0D9FF0849074884
:103B500001F0D9F90749054800F032FEBDE81040F0
:103B6000024801F01DBA00007C0100206C09002011
:103B7000E000002064010020FEE770470907090EFD
:103B8000002806DA00F00F0000F1E02080F8141D94
:103B9000704700F1E02080F8001470470148FDF7FD
:103BA00075BD0000DC0300202DE9F84F0F46C1EB86
:103BB000C70100EB810582460668D5E91301441A66
:103BC000286C3835A04200D20446E01C4FEA900829
:103BD00006EB471916E0441AA868A04200D2044632
:103BE000E01C4FEA90089AF810000090A3B2FAB2D5
:103BF0003046E96801F052FFE8682044E860A869AF
:103C00002044A861D9F8180980B2404505D9D5E902
:103C10000501814201D20028DDD134B90120D6F856
:103C20003418B8408143C6F834180020BDE8F88F36
:103C300070470000002832D00188C1F30A021849F9
:103C40000A8042788378D20842EA4312C2F30A0219
:103C50004A808278C378920942EA8302037942EA71
:103C60008322C2F30A028A8002794379520842EA27
:103C7000C312C2F30A02CA80427992090A724279D7
:103C8000C2F301124A72C2884A8102898A8142893A
:103C9000CA81027B8A74427BCA74807B88827047A7
:103CA0005202002038B50B460092044600228021C3
:103CB00000F008F8002804D0606D40F02000606536
:103CC000032038BD2DE9F0411D4617460E46044637
:103CD000DDF8188035E0681C33D02DB1FDF7A0FA6F
:103CE000A0EB0800A8422CD32068416821F0E00135
:103CF00041606068B0F5827F0BD1A068B0F5004FDD
:103D000002D0B0F5806F04D12068016821F0400135
:103D10000160A06AB0F5005F0AD1206801684DF625
:103D2000FF72114001602068016841F40051016098
:103D3000012084F85100002084F850000320BDE8E1
:103D4000F0812068806836EA000004D00020B84284
:103D5000C1D10020F3E70120F9E770472DE9FC41CC
:103D6000046B0F464FF40071089E2160046B002124
:103D7000A160046BE160046B0821216151420DB226
:103D80005942026B0CB2390A1175016B4F75026B07
:103D9000290A9175016BCD75026B210A1176016BB1
:103DA0004C76026B310A9176016BCE760A21FCF7D4
:103DB000E7FEFDF735FACDE9006023462A4639468D
:103DC00002A001F081FEBDE8FC8100005472792060
:103DD000746F207365742074686520737065656402
:103DE0002030782578203078257820307825782084
:103DF000307825782061742074696D6520256420F1
:103E00000A0D000010B5FDF711FABDE81040FEF7ED
:103E1000CEBB000030B5254893B00025016841F0C5
:103E200080510160006800F08050119020480168C6
:103E300041F4404101600068022400F440401190C8
:103E40000120009001908005CDE906400C200890EB
:103E50004FF4A870CDE9090407200B906846FEF7DF
:103E6000C1F800B1FEE70CA90F2081E831004FF442
:103E7000A0500F904FF48050109005210CA8FDF732
:103E800083FF00B1FEE7FEF73DF84FF47A71B0FB17
:103E9000F1F0FEF778FB0420FEF768FB00221146E4
:103EA000501EFDF777FA13B030BD000040380240D5
:103EB000007000401048016841F4700101600F4833
:103EC000016841F0010101600C4A002108321160D3
:103ED00002680B4B1A400260031D0A4A1A6002680E
:103EE00022F48022026005480C3001600249580625
:103EF000803908607047000088ED00E0003802401B
:103F0000FFFFF6FE103000240148FEF7A5BC0000BC
:103F1000800C0020F0B50268234B244D244E254F21
:103F2000254C4FF0804C984209D0604507D0A842FC
:103F300005D0B04203D0B84201D0A04204D122F053
:103F4000700E4A6842EA0E0298421BD0604519D0B2
:103F5000A84217D0B04215D0B84213D0A04211D019
:103F6000164DA8420ED0164DA8420BD0154DA842B2
:103F700008D0154DA84205D0144DA84202D0144DCA
:103F8000A84203D122F44075CA682A4302608A68B5
:103F9000C2620A688262984201D0A04201D10969D6
:103FA000016301214161F0BD0000014000040040B7
:103FB00000080040000C00400004014000400140A7
:103FC000004401400048014000180040001C00402F
:103FD0000020004010B50123046A8B409C4304621A
:103FE000036A8A401343036210BD10B5846842EA35
:103FF000032224F47F440A432243826010BD826876
:1040000022F070020A4342F007018160704700000D
:1040100030B5026A22F001020262026A43688469D2
:104020000D6824F07304254322F002048A682243B9
:104030000B4CA04202D00B4CA0420BD122F0080442
:10404000CA6823F4407322434C6922F004021C43E3
:104050008B6923434360856149684163026230BDD7
:10406000000001400004014030B5026A22F0100255
:104070000262026A436884690D6824F4E64444EAF3
:1040800005248D6822F0200242EA05120D4DA84257
:1040900002D00D4DA8420ED1CD6822F0800242EA36
:1040A00005124D6923F4406343EA85038D6922F0CC
:1040B000400243EA85034360846149688163026288
:1040C00030BD0000000001400004014030B5026A2C
:1040D00022F480720262036A4268C46923F40073A6
:1040E00024F073050C682C438D6843EA05230D4DBD
:1040F000A84202D00C4DA8420ED1CD6823F4006333
:1041000043EA05234D6922F4405242EA05128D69C3
:1041100023F4806342EA05124260C4614968C163C6
:10412000036230BD000001400004014030B5026A66
:1041300022F480520262046A4268C3690D6823F463
:10414000E64343EA05238D6824F4005444EA053429
:10415000084DA84202D0084DA84204D14D6922F46E
:10416000804242EA85124260C36149680164046288
:1041700030BD0000000001400004014010B5036A9A
:10418000046A24F001040462846924F0F00444EA1F
:10419000021423F00A020A438461026210BD10B5C2
:1041A000036A23F0100303628369046A23F47043F3
:1041B00043EA023224F0A00343EA01118261016262
:1041C00010BD10B5806B0021C185C184FEF70EFDC6
:1041D00010BD0168CA6822F49072CA6001684A6919
:1041E00022F001024A61202180F83A10704710B590
:1041F00090F83A10222901D0022010BD8168B1F553
:10420000805F11D00169002901681FD0496801F061
:104210007F03816A4A1C82620B70C18D491E0904AA
:10422000090CC18518D026E00269816A002A02685B
:10423000526805D0D2B20A80816A491C8162ECE7DB
:10424000C2F308020A80816A891CF7E74A68816A1A
:104250004B1C83620A70E0E70168CA6822F490721E
:10426000CA6001684A6922F001024A61202180F88F
:104270003A10FEF771FE002010BD00002DE9F0415C
:1042800004460068016921F44052E168114301616C
:104290002168C86849F20C6290432369A268E56905
:1042A0001A4363692B431A430243CA602168486971
:1042B00020F44072A06910434861E1696425B1F5BA
:1042C000004F9748974A21684FF032083FD09142FB
:1042D00001D081427CD1FDF733FE00EBC00101EB40
:1042E000001061688900B0FBF1F6FDF729FE00EBD4
:1042F000C00101EB001061688900B0FBF1F0B0FB78
:10430000F5F06FF01801484306EB800108EB01104F
:10431000B0FBF5F000F0F006FDF712FE00EBC00177
:1043200001EB001061688900B0FBF1F0B0FBF5F023
:1043300006EB0016FDF704FE00EBC00101EB0010D8
:1043400061688900B0FBF1F7FDF7FAFDD2E0914218
:1043500001D081423DD1FDF7F3FD00EBC00101EB3F
:10436000001061684900B0FBF1F0B0FBF5F0060108
:10437000FDF7E6FD00EBC00101EB001061684900AC
:10438000B0FBF1F7FDF7DCFD00EBC00101EB001025
:1043900061684900B0FBF1F0B0FBF5F06FF0180177
:1043A000484307EB800108EBC100B0FBF5F000F0DB
:1043B000F80006EB4006FDF7C3FD00EBC00101EB82
:1043C000001061684900B0FBF1F7FDF7B9FD3CE072
:1043D00055E0FDF79DFD00EBC00101EB00106168A9
:1043E0004900B0FBF1F0B0FBF5F00601FDF790FDE0
:1043F00000EBC00101EB001061684900B0FBF1F770
:10440000FDF786FD00EBC00101EB0010616849007B
:10441000B0FBF1F0B0FBF5F06FF01801484307EB8B
:10442000800108EBC100B0FBF5F000F0F80006EBEE
:104430004006FDF76DFD00EBC00101EB0010616867
:104440004900B0FBF1F7FDF763FD00EBC00101EBA4
:10445000001061684900B0FBF1F0B0FBF5F06FF0BF
:104460001801484307EB800108EBC100B0FBF5F0F1
:1044700000F00700216830448860BDE8F081FDF756
:1044800047FD00EBC00101EB001061688900B0FB43
:10449000F1F6FDF73DFD00EBC00101EB0010616896
:1044A0008900B0FBF1F0B0FBF5F06FF01801484364
:1044B00006EB800108EB0110B0FBF5F000F0F00610
:1044C000FDF726FD00EBC00101EB001061688900DB
:1044D000B0FBF1F0B0FBF5F006EB0016FDF718FDB0
:1044E00000EBC00101EB001061688900B0FBF1F73F
:1044F000FDF70EFD00EBC00101EB001061688900C3
:10450000B0FBF1F0B0FBF5F06FF01801484307EB9A
:10451000800108EB0110B0FBF5F000F00F00A9E7F7
:10452000001401400010014090F83910212901D0F9
:10453000022070478168B1F5805F016A0BD04A1C88
:104540000262026809785160C18C491E0904090C95
:10455000C1840ED017E009880268C1F308015160D8
:1045600001690029016A02D0491C0162ECE7891C3B
:10457000FBE70168CA6822F08002CA600068C1686F
:1045800041F04001C160002070472DE9F04198469C
:1045900017460E460446069D1DE0681C1BD02DB133
:1045A000FCF73EFEA0EB0800A84214D92068C168C1
:1045B00021F4D071C1602068416921F0010141619D
:1045C000202084F8390084F83A00002084F838006C
:1045D0000320BDE8F0812068006836EA000004D0BE
:1045E0000020B842D9D00020F3E70120F9E700000D
:1045F0000148FEF7FDBA00007C0200200148FEF7EA
:10460000F7BA0000BC02002010B504A001F05CFA6B
:10461000BDE810400548FEF7EBBA00005553415283
:1046200054335F4952510A0D00000000FC02002083
:104630000148FEF7DDBA00003C030020D0F8180264
:1046400020B10021C0F814120846704702207047BC
:1046500070B50546D0F8184200F01DFBC4F80C02F6
:10466000D5F8180248B1D5F81C12D4F80402CA686B
:1046700004F503719047002070BD022070BD70B535
:1046800004460025812100F05FFA0121204600F058
:104690005BFA8221204600F057FAD4F8180250B194
:1046A000D4F81C0204F5067440688047206801F0C5
:1046B00055FC00202060284670BD10B5D0E9864129
:1046C00059B194F80002FF2807D08B6894F80122B2
:1046D00021469847FF2084F80002002010BD00000A
:1046E0000A21018000487047080000204321018012
:1046F000004870475800002043210180004870475F
:104700001400002043210180004870479C000020D5
:104710002DE9F0410446007C00254FF4007670B38B
:10472000402302228121204600F00CFB402302227C
:104730000121204600F006FB0823032282212046A7
:1047400000F000FB4FF4077001F088FCC4F8180279
:10475000F0B10746D4F81C02006880470020C7F873
:104760001402C7F81802207CD7F8042290B1402325
:104770000121204600F0F9FA2846BDE8F081FFE764
:10478000334602228121204600F0DCFA3346CEE790
:104790000125F1E73346EBE710B5D0F8181269B1FF
:1047A000027C002AD1F8042205D04023012100F028
:1047B000DCFA002010BD4FF40073F7E7022010BDB3
:1047C00002460220002902D00020C2F81C127047C5
:1047D000D0F81802C0F8041200207047D0F8180270
:1047E000C0F81022C0F808120020704770B50646C5
:1047F000D0F8185208780C4610F0600121D020291A
:1048000027D1E288AAB10006607807D5D6F81C1235
:104810008B6829469847E288294617E085F8000208
:10482000A07985F80102E2882946304600F038F880
:104830000FE0D6F81C12607800228B68214698475A
:1048400007E060780A2804D103490122304600F0CD
:1048500041F8002070BD00000400002010B5D0F821
:10486000142252689047002010BD134610B50A4626
:10487000002100F07AFA002010BD134610B50A4658
:10488000002100F01CFB002010BD10B50446802163
:1048900000F0ECFA2046BDE81040002100F0E6BA36
:1048A00010B50323C0F80821C0F8F431C0F80C217A
:1048B00013460A46002100F058FA002010BD10B53A
:1048C00005210023C0F8F4111A46194600F04DFAEC
:1048D000002010BD10B502238261C0F8F431C2611E
:1048E00013460A46002100F0EAFA002010BD10B578
:1048F00004210023C0F8F4111A46194600F0DFFA2B
:10490000002010BD10B50A46024903A000F0D4F8FB
:10491000004810BDEC08002043444320436F6E66FE
:104920006967000012200880004870479C01002041
:1049300010B50A46024903A000F0BEF8004810BDB9
:10494000EC08002043444320496E7465726661633D
:10495000650000000420088000487047980100208E
:1049600010B50A46024903A000F0A6F8004810BDA1
:10497000EC08002053544D6963726F656C65637475
:10498000726F6E696373000010B50A46024903A096
:1049900000F092F8004810BDEC08002053544D334D
:1049A00032205669727475616C20436F6D506F725E
:1049B0007400000010B50A46024903A000F07CF81C
:1049C000004810BDEC08002030303030303030303E
:1049D0003030314100000000F8B5044648880D46EB
:1049E000010A08294BD2DFE801F04A0409174A4AB4
:1049F0004048D4F81012207C0A6832E0207C02265D
:104A00000028D4F8140205D0C16A684688470146D8
:104A1000467041E0816AF8E7C0B206282FD2DFE88D
:104A200000F003080D12171CD4F81012207C4A68FD
:104A300017E0D4F81012207C8A6812E0D4F8101223
:104A4000207CCA680DE0D4F81012207C0A6908E0C6
:104A5000D4F81012207C4A6903E0D4F81012207CAC
:104A60008A6969469047014616E0207C38B9D4F837
:104A70001402416B68468847F5E7207C20B129463F
:104A80002046FFF702FFF8BDD4F81402016B684618
:104A90008847014607204870BDF800000028F2D082
:104AA000EA88002AEFD0824200D90246ADF8002001
:104AB0002046FFF70FFFF8BD70B5002300281DD07A
:104AC0000446002502E06D1CEDB2641C2678002E21
:104AD000F9D1022404EB45041480CC545B1C03225E
:104AE000CA5400245B1C06E0CA545B1CDAB28C5426
:104AF000521CD3B2401C0278002AF5D170BD10B50B
:104B000080B1D0F8143213B10023C0F8143209B1C7
:104B1000C0F81012012180F8FC11027000F0C0F8FA
:104B2000002010BD022010BD10B50024D0F82002D6
:104B3000FCF7C5FC30B1012801D0022801D00224C5
:104B400000E00124204610BD10B50024D0F820025A
:104B5000FCF793FC30B1012801D0022801D00224D7
:104B600000E00124204610BD2DE9F041174604461F
:104B700041B1D4F8140242698AB394F8FC010328C5
:104B800042D043E0D4F8F411002504F114000229C6
:104B900033D1D0E902639E4207D9F31A83609AB2F7
:104BA00039462046FFF769FE12E04068B0FBF3F19A
:104BB00003FB1101A1B9984212D3D4F8F81188422D
:104BC0000ED2002211462046FFF757FEC4F8F851D6
:104BD00000231A461946204600F0C7F80DE012E0FF
:104BE000D4F81402C16829B194F8FC01032801D15A
:104BF000204688472046FFF762FE94F8000201280D
:104C000004D184F8005201E0204690470020BDE81E
:104C1000F08170B51546044641B1D4F8140282699A
:104C20003AB394F8FC01032824D025E0D4F8F41119
:104C300004F5827003291FD1D0E902218A420BD9E1
:104C4000531A83600846834200D303469AB229462A
:104C50002046FFF70AFE0FE0D4F81402016929B1DB
:104C600094F8FC01032801D1204688472046FFF72D
:104C70003EFE01E020469047002070BD00207047B6
:104C800010B5012180F8FC11D0F814220179526886
:104C90009047002010BDD0F82002FCF738BC00007F
:104CA00010B5017859BB17490222C1F8B403C0F806
:104CB00020124FF0A0400860042048600020C1E9A5
:104CC0000320C1E90502C86108624862C86208633E
:104CD0000846FCF75DFF20B140F23B110AA000F04E
:104CE000F2FE80210748FCF787FB4022002105489F
:104CF000FCF786FB802201210248FCF781FB0020A3
:104D000010BD0000DC0300202E2E2F5372632F7580
:104D10007362645F636F6E662E6300000A0601F0C3
:104D20007F01D0F82002C1EBC10100EB810002D568
:104D300090F83A00704790F8DE0170470020704705
:104D40000020704770B51D4613460024D0F820029D
:104D50002A46FCF7E6FB30B1012801D0022801D039
:104D6000022400E00124204670BD10B50024D0F8D4
:104D70002002FCF701FC30B1012801D0022801D04B
:104D8000022400E00124204610BD70B50022044634
:104D900040231146FFF7D6FF40252B4600228021F5
:104DA0002046C4F81051FFF7CDFF0120256284F89A
:104DB000FC01D4F8180228B1D4F814022179426811
:104DC00020469047002070BD90F8FD1180F8FC113E
:104DD0000020704710B590F8FC11032904D1D0F8D9
:104DE0001412C96901B18847002010BD0174002068
:104DF000704710B50024D0F82002FCF77FFF30B1D7
:104E0000012801D0022801D0022400E0012420461C
:104E100010BD70B5044600F50270054600F05FF85D
:104E20000120C4F8F401B4F80E02C4F8F80194F8B3
:104E3000080210F01F010AD001290DD0022910D05C
:104E400000F08001204600F011F8002070BD2946D6
:104E5000204600F0AAF8F8E72946204600F08CF931
:104E6000F3E72946204600F019F9EEE710B50024D3
:104E7000D0F82002FCF7AFFB30B1012801D00228A6
:104E800001D0022400E00124204610BD10B500240A
:104E9000D0F82002FCF74BFF30B1012801D00228E6
:104EA00001D0022400E00124204610BD90F8FC113E
:104EB00080F8FD11042180F8FC110020704710B526
:104EC0000024D0F82002FCF7B6FB30B1012801D055
:104ED000022801D0022400E00124204610BD0A78F7
:104EE00002704A7842708A78CB7802EB03224280C3
:104EF0000A794B7902EB032282808A79C97902EB25
:104F00000121C18070470246002011B1C2F814127D
:104F100070470220704710B5D0F8142202241AB14D
:104F20001268904700B90024204610BD70B50E46A7
:104F30001A4D897804462970012928D894F8FC0173
:104F4000022802D0032822D105E099B10320616034
:104F500084F8FC0109E091B1606888420AD0C1B2CE
:104F60002046FFF77BFC297861602046FFF7D3FFDE
:104F700002280CD02046BDE87040FFF7B8BC0220E4
:104F800084F8FC0120466160FFF768FCF2E73146D7
:104F90002046BDE87040FFF778BC000018010020F3
:104FA00010B5FFF773FF002010BD2DE9F04100267A
:104FB0004B78012532460A2B43D2DFE803F03C58F8
:104FC0004251420805422A27FFF706FD63E00446E6
:104FD0008888C8B9C888B8B9887800F07F0794F87D
:104FE000FC01032810D084F8FE7139462046FFF7F3
:104FF00000FF2046FFF77BFC1FB1022084F8FC0174
:1050000049E084F8FC5146E020461AE0FFF78EFFA5
:1050100041E0CB88012B14D190F8FC31022B02D057
:10502000032B0ED104E08260012200F1080114E09C
:105030000122011D11E090F8FC21022A04D0032A6C
:1050400002D0FFF722FC26E0C560D0F8041209B1B7
:105050000321C160022200F10C01FFF73BFC1AE0C2
:1050600004464888012816D1C4F804520BE00446CF
:1050700090F8FC01022801D00328C5D148880128F6
:1050800009D1C4F80422D4F814028268204690475B
:105090002046FFF72CFC3046BDE8F08170B50D4688
:1050A0000446287800260979C0F34110012806D06B
:1050B0006878A0B301281FD003283FD107E0D4F8B7
:1050C00014022946826820469047002070BD94F85B
:1050D000FC01022817D003282CD1688828B921B1F7
:1050E000802902D02046FFF7C1FED4F814022946D9
:1050F00082682046904713E094F8FC01022802D011
:10510000032817D103E0C9B180291BD116E06888B4
:10511000A0B9480604D02046FFF706FDE5E703E006
:105120002046FFF7E4FB09E094F8FC01022807D0D1
:1051300003280BD029462046FFF7A7FB304670BD59
:105140004806FBD02046FFF791FEF7E7080601F07E
:105150007F0004EB001501D5143501E005F58275DB
:105160002046FFF7DBFD00B101202860022229461E
:105170002046FFF7AFFBE1E770B5054690F8FC016C
:105180000C4603280DD1207901280AD8D5F814023D
:10519000826828469047E08830B92846FFF7A7FB89
:1051A00002E02846FFF771FB002070BD30B54C7857
:1051B0001D4B01220D78AA40012CD0F81C4818D0B4
:1051C00044EA0242C0F81C280A7800EB4210D0F8EA
:1051D000002B12040BD4D0F8002B0C89C4F30A0462
:1051E0002243C97843EA81410A43C0F8002B0020DA
:1051F00030BD92B21443C0F81C480C7800EB441048
:10520000D0F800291204F2D4D0F800290D89C5F392
:105210000A052A43C978890441EA84510A431A439A
:10522000C0F80029E3E7000000800010D0F8001962
:105230006FF30A01C0F80019D0F80818C1F3410152
:10524000022905D1D0F8001941F00301C0F8001976
:10525000D0F8041841F48071C0F804180020704799
:1052600070B50446049D06990D9801290CD0E0689C
:1052700040F04000E060204600F024F84FF4803019
:10528000A063012D16D019E0A16B21F48031A16338
:10529000E1680B4A1140E160E16821F44011E160EE
:1052A000012803D1E06840F48010E060204600F05F
:1052B00009F8E6E7A06840F02000A060002070BD7B
:1052C000BFFFBDFF01220C4902E0521C8A420BD8ED
:1052D0000369002BF9DA026942F00102026101223E
:1052E00004E0521C8A4201D9032070470369DB079E
:1052F000F7D1002070470000400D030030B54D7815
:1053000001220C7802FA04F3012DD0F83C4816D0A3
:1053100024EA0343C0F83C38D0F81C380C78A2408B
:1053200023EA0242C0F81C28097800EB4110D0F8AB
:10533000001B21F40041C0F8001B002030BD9BB2CF
:105340009C43C0F83C48D0F81C380C78A24092B27C
:105350009343C0F81C38097800EB4110D0F80019CD
:1053600021F40041C0F80019E7E710B5D0F804189F
:1053700021F00201C0F804180320FBF748FE0020CA
:1053800010BD10B5D0F8041841F00201C0F804189F
:105390000320FBF73CFE002010BD00002DE9F04784
:1053A0000E460446DDE90A0A0025DDF83C80089F28
:1053B000A16B41F40021A163B8F1000F03D1A16BEF
:1053C00041F40011A1634FF00009C4F8009ED4F825
:1053D0000018C4F80018012804D0D4F8000840F0E0
:1053E000030004E0D4F800080BB140F00100C4F859
:1053F00000081021204600F0BDFA204600F0AAFA6D
:105400004846C4F81098C4F814984FF0FF31C4F817
:105410001818C4F81C984FF0904CFF2310E000BF00
:1054200004EB4511D1F80029002A02DAC1F800C9BD
:1054300001E0C1F80009C1F81009C1F808396D1C74
:10544000AE42EDD800210FE004EB4112D2F8005B30
:10545000002D02DAC2F800CB01E0C2F8000BC2F85E
:10546000100BC2F8083B491C8E42EDD8D4F8101836
:1054700021F48071C4F81018012F0AD11449C4F81E
:105480003018D4F83018134A1143C4F83018D4F83F
:105490003018A0616FF0804060611FB9A06940F0D2
:1054A0001000A061A0690C490843A061BAF1000F87
:1054B00003D0A06940F00800A061B8F1010F03D14A
:1054C000A06906490843A0610020BDE8F0870000FC
:1054D000000180000300010000383C80040000400F
:1054E000816821F0010181600020704730B54D785E
:1054F0004D4C0B7800EB4313012D28D0D3F8105BF3
:105500006FF31205C3F8105B0B7800EB4313D3F86D
:10551000105B2540C3F8105B4B690BB18B684B6186
:105520000B7800EB4313D3F8104B44F40024C3F87A
:10553000104B0B7800EB4313D3F8104B8D68C5F379
:1055400012052C43C3F8104B012A5CD061E04D6971
:10555000002DD3F810593BD06FF31205C3F8105942
:105560000B7800EB4313D3F810592540C3F81059BA
:105570004C698B689C4200D94B610B7800EB43135C
:10558000D3F8104944F40024C3F810490B7800EB19
:105590004313D3F810494D69C5F3120554EA0504C5
:1055A000C3F81049012A27D04A693AB1D0F8342803
:1055B0000C780123A3401A43C0F83428097800EB83
:1055C0004110D0F8001941F00441C0F8001929E059
:1055D0002540C3F810590B7800EB4313D3F810495A
:1055E00044F40024C3F810490B7800EB4313D3F8BC
:1055F00010496FF31204D3E70B7800EB43130A69E9
:10560000C3F81429DAE70B7800EB4313CA68C3F830
:10561000142B097800EB4110D0F8001B41F0044135
:10562000C0F8001B002030BDFFFF07E00023C0F8DA
:10563000103BD0F8103B43F40023C0F8103BD0F8E7
:10564000103B43F01803C0F8103BD0F8103B43F078
:10565000C043C0F8103B012905D1C0F8142B4FF00E
:105660008021C0F8001B002070474B780A7800EBBF
:105670004212012B0BD0D2F8003B23F40013C2F8E6
:10568000003BCA78032A17D0022A15D01DE0D2F8B1
:10569000003923F40013C2F80039CA78032A01D074
:1056A000022A12D1097800EB4110D0F8001941F01C
:1056B0008051C0F8001908E0097800EB4110D0F8DB
:1056C000001B41F08051C0F8001B002070474B7850
:1056D0000A7800EB4212012B14D0D2F8003B002BC9
:1056E00005DBD2F8003B23F08043C2F8003B097889
:1056F00000EB4110D0F8001B41F40011C0F8001B72
:1057000000207047D2F80039002B05DBD2F80039B1
:1057100023F08043C2F80039097800EB4110D0F83B
:10572000001941F40011C0F80019E9E778B54E7886
:105730006FF06045834C0B7800EB4313012E2FD0A4
:10574000D3F8106B6FF31206C3F8106B0B7800EBF5
:105750004313D3F8106B2640C3F8106B4B69002B32
:105760007DD08C6823445B1EB3FBF4F39BB20C78B2
:1057700000EB4414D4F8106B05EAC3452E43C4F87B
:10578000106B0C7800EB4414D4F8105B8E685E4309
:10579000C6F312031D43C4F8105B012A73D0B2E0B4
:1057A0004E6966B3D3F810696FF31206C3F8106937
:1057B0000B7800EB4313D3F810692640C3F8106947
:1057C0004C698B681C44641EB4FBF3F305EAC344C4
:1057D0000B7800EB4313D3F810592C43C3F810494E
:1057E0000B7800EB4313D3F810494D69C5F312054C
:1057F0002C43C3F81049CB78012B16D027E0D3F8FF
:1058000010592540C3F810590B7800EB4313D3F817
:10581000104944F40024C3F810490B7800EB4313FB
:10582000D3F810496FF312040FE00B7800EB431329
:10583000D3F8104924F0C044C3F810490B7800EBAA
:105840004313D3F8104944F00054C3F81049012A17
:1058500012D0CB78012B17D04B692BB300E037E087
:10586000D0F834380D780124AC402343C0F83438E4
:10587000CB78012B08D017E00C7800EB44140B69AF
:10588000C4F81439F4E738E0D0F80838DB050B78B1
:1058900000EB4313D3F8004902D444F0005401E074
:1058A00044F08054C3F800490B7800EB4313D3F85D
:1058B000004944F00444C3F80049CB78012B3ED1A1
:1058C00000928A8A93B20A78C96800F0E7F836E055
:1058D0000B7800EB4313D3F8104B8D68C5F312051A
:1058E0002C43C3F8104B0B7800EB4313D3F8104B49
:1058F00044F40024C3F8104B4FE70B7800EB43133C
:10590000CA68C3F8142BCA78012A0FD1D0F8082826
:10591000D2050A7800EB4212D2F8003B02D443F0E1
:10592000005301E043F08053C2F8003B097800EBDC
:105930004110D0F8001B41F00441C0F8001B0020CA
:1059400078BD0000FFFF07E0816841F00101816040
:1059500000207047002110220261054A491C914233
:1059600001D9032070470369DB06F7D40020704794
:10597000400D03000022202343EA81110161054903
:10598000521C8A4201D90320704703699B06F7D451
:1059900000207047400D03000021D0F8082812F0C5
:1059A000060F15D0D0F80828C2F34102012A0CD006
:1059B000D0F80828C2F34102032A06D0D0F808081C
:1059C000C0F34100022802D002E0032100E00221DE
:1059D00008467047406900F001007047D0F8181879
:1059E000D0F81C08084080B27047D0F81818D0F8DA
:1059F0001C080840000C7047D0F81038D0F8342844
:105A0000CA4002F0010243EAC21200EB4110D0F892
:105A100008091040704700EB4111D1F8081BD0F87D
:105A2000140808407047416980690840704710B504
:105A300003460020D21C920803F5805303E01C6843
:105A400041F8044B401C9042F9D3084610BD10B5F4
:105A5000C26822F0C042C260012901D021B107E032
:105A6000C16841F0005102E0C16841F08041C1606D
:105A70003220FBF7CCFA002010BDD0F8002822F429
:105A8000FE62C0F80028D0F800284FF4FE6303EA55
:105A900001110A43C0F800280020704730B50024E7
:105AA000039D6DB9DB1C9B0800EB023000F58050B4
:105AB00004E000BF51F8042B0260641C9C42F9D33F
:105AC000002030BDFEE7FEE70FB4054B10B503A97B
:105AD000044A029800F018F810BC5DF814FB0000AE
